{
  "_format": "hh3-artifact-1",
  "contractName": "StakedQuiz",
  "sourceName": "contracts/Quiz.sol",
  "abi": [
    {
      "inputs": [],
      "name": "ReentrancyGuardReentrantCall",
      "type": "error"
    },
    {
      "inputs": [
        {
          "internalType": "address",
          "name": "token",
          "type": "address"
        }
      ],
      "name": "SafeERC20FailedOperation",
      "type": "error"
    },
    {
      "anonymous": false,
      "inputs": [
        {
          "indexed": true,
          "internalType": "uint256",
          "name": "qid",
          "type": "uint256"
        },
        {
          "indexed": false,
          "internalType": "uint8",
          "name": "correctAnswerIndex",
          "type": "uint8"
        },
        {
          "indexed": false,
          "internalType": "uint256",
          "name": "correctCount",
          "type": "uint256"
        }
      ],
      "name": "AnswerRevealed",
      "type": "event"
    },
    {
      "anonymous": false,
      "inputs": [
        {
          "indexed": true,
          "internalType": "uint256",
          "name": "qid",
          "type": "uint256"
        },
        {
          "indexed": true,
          "internalType": "address",
          "name": "user",
          "type": "address"
        },
        {
          "indexed": false,
          "internalType": "uint8",
          "name": "answerIndex",
          "type": "uint8"
        },
        {
          "indexed": false,
          "internalType": "uint256",
          "name": "stake",
          "type": "uint256"
        }
      ],
      "name": "Participated",
      "type": "event"
    },
    {
      "anonymous": false,
      "inputs": [
        {
          "indexed": true,
          "internalType": "uint256",
          "name": "qid",
          "type": "uint256"
        },
        {
          "indexed": true,
          "internalType": "address",
          "name": "creator",
          "type": "address"
        },
        {
          "indexed": false,
          "internalType": "address",
          "name": "token",
          "type": "address"
        },
        {
          "indexed": false,
          "internalType": "uint256",
          "name": "Q",
          "type": "uint256"
        },
        {
          "indexed": false,
          "internalType": "uint256",
          "name": "P",
          "type": "uint256"
        },
        {
          "indexed": false,
          "internalType": "uint256",
          "name": "startAt",
          "type": "uint256"
        },
        {
          "indexed": false,
          "internalType": "uint256",
          "name": "endAt",
          "type": "uint256"
        }
      ],
      "name": "QuestionCreated",
      "type": "event"
    },
    {
      "anonymous": false,
      "inputs": [
        {
          "indexed": true,
          "internalType": "uint256",
          "name": "qid",
          "type": "uint256"
        },
        {
          "indexed": false,
          "internalType": "uint256",
          "name": "refundAvailableAt",
          "type": "uint256"
        }
      ],
      "name": "RefundsActivated",
      "type": "event"
    },
    {
      "anonymous": false,
      "inputs": [
        {
          "indexed": true,
          "internalType": "uint256",
          "name": "qid",
          "type": "uint256"
        },
        {
          "indexed": false,
          "internalType": "uint256",
          "name": "totalParticipantStakes",
          "type": "uint256"
        },
        {
          "indexed": false,
          "internalType": "uint256",
          "name": "rewardPool",
          "type": "uint256"
        },
        {
          "indexed": false,
          "internalType": "uint256",
          "name": "perWinnerShare",
          "type": "uint256"
        }
      ],
      "name": "RewardsAssigned",
      "type": "event"
    },
    {
      "anonymous": false,
      "inputs": [
        {
          "indexed": true,
          "internalType": "uint256",
          "name": "qid",
          "type": "uint256"
        },
        {
          "indexed": false,
          "internalType": "uint256",
          "name": "totalStaked",
          "type": "uint256"
        },
        {
          "indexed": false,
          "internalType": "uint256",
          "name": "participantCount",
          "type": "uint256"
        },
        {
          "indexed": false,
          "internalType": "uint256",
          "name": "timestamp",
          "type": "uint256"
        }
      ],
      "name": "StakeChanged",
      "type": "event"
    },
    {
      "anonymous": false,
      "inputs": [
        {
          "indexed": true,
          "internalType": "address",
          "name": "user",
          "type": "address"
        },
        {
          "indexed": true,
          "internalType": "address",
          "name": "token",
          "type": "address"
        },
        {
          "indexed": false,
          "internalType": "uint256",
          "name": "totalPaidIn",
          "type": "uint256"
        },
        {
          "indexed": false,
          "internalType": "uint256",
          "name": "totalCredited",
          "type": "uint256"
        },
        {
          "indexed": false,
          "internalType": "uint256",
          "name": "totalWithdrawn",
          "type": "uint256"
        }
      ],
      "name": "UserAccountingUpdated",
      "type": "event"
    },
    {
      "anonymous": false,
      "inputs": [
        {
          "indexed": true,
          "internalType": "address",
          "name": "user",
          "type": "address"
        },
        {
          "indexed": true,
          "internalType": "address",
          "name": "token",
          "type": "address"
        },
        {
          "indexed": false,
          "internalType": "uint256",
          "name": "amount",
          "type": "uint256"
        }
      ],
      "name": "Withdrawn",
      "type": "event"
    },
    {
      "inputs": [
        {
          "internalType": "uint256",
          "name": "qid",
          "type": "uint256"
        },
        {
          "internalType": "address[]",
          "name": "addrs",
          "type": "address[]"
        }
      ],
      "name": "batchRefundParticipants",
      "outputs": [],
      "stateMutability": "nonpayable",
      "type": "function"
    },
    {
      "inputs": [
        {
          "internalType": "address",
          "name": "token",
          "type": "address"
        },
        {
          "internalType": "string",
          "name": "contentUri",
          "type": "string"
        },
        {
          "internalType": "bytes32",
          "name": "answerHash",
          "type": "bytes32"
        },
        {
          "internalType": "uint256",
          "name": "Q",
          "type": "uint256"
        },
        {
          "internalType": "uint256",
          "name": "P",
          "type": "uint256"
        },
        {
          "internalType": "uint256",
          "name": "startAt",
          "type": "uint256"
        },
        {
          "internalType": "uint256",
          "name": "endAt",
          "type": "uint256"
        }
      ],
      "name": "createQuestion",
      "outputs": [
        {
          "internalType": "uint256",
          "name": "",
          "type": "uint256"
        }
      ],
      "stateMutability": "nonpayable",
      "type": "function"
    },
    {
      "inputs": [
        {
          "internalType": "uint256",
          "name": "qid",
          "type": "uint256"
        }
      ],
      "name": "creatorClaimRefund",
      "outputs": [],
      "stateMutability": "nonpayable",
      "type": "function"
    },
    {
      "inputs": [
        {
          "internalType": "uint256",
          "name": "qid",
          "type": "uint256"
        },
        {
          "internalType": "address",
          "name": "user",
          "type": "address"
        }
      ],
      "name": "getParticipant",
      "outputs": [
        {
          "components": [
            {
              "internalType": "bool",
              "name": "participated",
              "type": "bool"
            },
            {
              "internalType": "uint8",
              "name": "answerIndex",
              "type": "uint8"
            },
            {
              "internalType": "bool",
              "name": "isCorrect",
              "type": "bool"
            },
            {
              "internalType": "uint256",
              "name": "stake",
              "type": "uint256"
            },
            {
              "internalType": "bool",
              "name": "withdrawn",
              "type": "bool"
            }
          ],
          "internalType": "struct StakedQuiz.Participant",
          "name": "",
          "type": "tuple"
        }
      ],
      "stateMutability": "view",
      "type": "function"
    },
    {
      "inputs": [
        {
          "internalType": "uint256",
          "name": "qid",
          "type": "uint256"
        }
      ],
      "name": "getQuestion",
      "outputs": [
        {
          "components": [
            {
              "internalType": "address",
              "name": "creator",
              "type": "address"
            },
            {
              "internalType": "address",
              "name": "token",
              "type": "address"
            },
            {
              "internalType": "string",
              "name": "contentUri",
              "type": "string"
            },
            {
              "internalType": "uint256",
              "name": "rewardPool",
              "type": "uint256"
            },
            {
              "internalType": "uint256",
              "name": "participationFee",
              "type": "uint256"
            },
            {
              "internalType": "uint256",
              "name": "startAt",
              "type": "uint256"
            },
            {
              "internalType": "uint256",
              "name": "endAt",
              "type": "uint256"
            },
            {
              "internalType": "bytes32",
              "name": "answerHash",
              "type": "bytes32"
            },
            {
              "internalType": "enum StakedQuiz.State",
              "name": "state",
              "type": "uint8"
            },
            {
              "internalType": "uint256",
              "name": "totalStakedFromParticipants",
              "type": "uint256"
            },
            {
              "internalType": "uint256",
              "name": "correctCount",
              "type": "uint256"
            },
            {
              "internalType": "uint256",
              "name": "refundAvailableAt",
              "type": "uint256"
            }
          ],
          "internalType": "struct StakedQuiz.Question",
          "name": "",
          "type": "tuple"
        }
      ],
      "stateMutability": "view",
      "type": "function"
    },
    {
      "inputs": [
        {
          "internalType": "address",
          "name": "token",
          "type": "address"
        },
        {
          "internalType": "address",
          "name": "user",
          "type": "address"
        }
      ],
      "name": "getUserAccount",
      "outputs": [
        {
          "internalType": "uint256",
          "name": "totalPaidIn",
          "type": "uint256"
        },
        {
          "internalType": "uint256",
          "name": "totalCredited",
          "type": "uint256"
        },
        {
          "internalType": "uint256",
          "name": "totalWithdrawn",
          "type": "uint256"
        },
        {
          "internalType": "int256",
          "name": "net",
          "type": "int256"
        }
      ],
      "stateMutability": "view",
      "type": "function"
    },
    {
      "inputs": [
        {
          "internalType": "address",
          "name": "token",
          "type": "address"
        },
        {
          "internalType": "address",
          "name": "user",
          "type": "address"
        }
      ],
      "name": "getUserInfo",
      "outputs": [
        {
          "internalType": "uint256",
          "name": "totalPaidIn",
          "type": "uint256"
        },
        {
          "internalType": "uint256",
          "name": "totalCredited",
          "type": "uint256"
        },
        {
          "internalType": "uint256",
          "name": "totalWithdrawn",
          "type": "uint256"
        },
        {
          "internalType": "uint256",
          "name": "earnedAmount",
          "type": "uint256"
        },
        {
          "internalType": "uint256",
          "name": "lostAmount",
          "type": "uint256"
        },
        {
          "internalType": "uint256[]",
          "name": "participatedQuestions",
          "type": "uint256[]"
        },
        {
          "internalType": "uint256[]",
          "name": "createdQuestions",
          "type": "uint256[]"
        },
        {
          "internalType": "int256",
          "name": "net",
          "type": "int256"
        }
      ],
      "stateMutability": "view",
      "type": "function"
    },
    {
      "inputs": [
        {
          "internalType": "uint256",
          "name": "",
          "type": "uint256"
        },
        {
          "internalType": "address",
          "name": "",
          "type": "address"
        }
      ],
      "name": "participants",
      "outputs": [
        {
          "internalType": "bool",
          "name": "participated",
          "type": "bool"
        },
        {
          "internalType": "uint8",
          "name": "answerIndex",
          "type": "uint8"
        },
        {
          "internalType": "bool",
          "name": "isCorrect",
          "type": "bool"
        },
        {
          "internalType": "uint256",
          "name": "stake",
          "type": "uint256"
        },
        {
          "internalType": "bool",
          "name": "withdrawn",
          "type": "bool"
        }
      ],
      "stateMutability": "view",
      "type": "function"
    },
    {
      "inputs": [
        {
          "internalType": "uint256",
          "name": "qid",
          "type": "uint256"
        },
        {
          "internalType": "uint8",
          "name": "answerIndex",
          "type": "uint8"
        }
      ],
      "name": "participate",
      "outputs": [],
      "stateMutability": "nonpayable",
      "type": "function"
    },
    {
      "inputs": [],
      "name": "questionCount",
      "outputs": [
        {
          "internalType": "uint256",
          "name": "",
          "type": "uint256"
        }
      ],
      "stateMutability": "view",
      "type": "function"
    },
    {
      "inputs": [
        {
          "internalType": "uint256",
          "name": "",
          "type": "uint256"
        }
      ],
      "name": "questions",
      "outputs": [
        {
          "internalType": "address",
          "name": "creator",
          "type": "address"
        },
        {
          "internalType": "address",
          "name": "token",
          "type": "address"
        },
        {
          "internalType": "string",
          "name": "contentUri",
          "type": "string"
        },
        {
          "internalType": "uint256",
          "name": "rewardPool",
          "type": "uint256"
        },
        {
          "internalType": "uint256",
          "name": "participationFee",
          "type": "uint256"
        },
        {
          "internalType": "uint256",
          "name": "startAt",
          "type": "uint256"
        },
        {
          "internalType": "uint256",
          "name": "endAt",
          "type": "uint256"
        },
        {
          "internalType": "bytes32",
          "name": "answerHash",
          "type": "bytes32"
        },
        {
          "internalType": "enum StakedQuiz.State",
          "name": "state",
          "type": "uint8"
        },
        {
          "internalType": "uint256",
          "name": "totalStakedFromParticipants",
          "type": "uint256"
        },
        {
          "internalType": "uint256",
          "name": "correctCount",
          "type": "uint256"
        },
        {
          "internalType": "uint256",
          "name": "refundAvailableAt",
          "type": "uint256"
        }
      ],
      "stateMutability": "view",
      "type": "function"
    },
    {
      "inputs": [
        {
          "internalType": "uint256",
          "name": "qid",
          "type": "uint256"
        },
        {
          "internalType": "uint8",
          "name": "correctAnswerIndex",
          "type": "uint8"
        },
        {
          "internalType": "bytes32",
          "name": "salt",
          "type": "bytes32"
        },
        {
          "internalType": "address[]",
          "name": "winners",
          "type": "address[]"
        }
      ],
      "name": "revealAndSettle",
      "outputs": [],
      "stateMutability": "nonpayable",
      "type": "function"
    },
    {
      "inputs": [
        {
          "internalType": "address",
          "name": "",
          "type": "address"
        },
        {
          "internalType": "address",
          "name": "",
          "type": "address"
        }
      ],
      "name": "userAccounts",
      "outputs": [
        {
          "internalType": "uint256",
          "name": "totalPaidIn",
          "type": "uint256"
        },
        {
          "internalType": "uint256",
          "name": "totalCredited",
          "type": "uint256"
        },
        {
          "internalType": "uint256",
          "name": "totalWithdrawn",
          "type": "uint256"
        },
        {
          "internalType": "uint256",
          "name": "earnedAmount",
          "type": "uint256"
        },
        {
          "internalType": "uint256",
          "name": "lostAmount",
          "type": "uint256"
        }
      ],
      "stateMutability": "view",
      "type": "function"
    },
    {
      "inputs": [
        {
          "internalType": "address",
          "name": "token",
          "type": "address"
        }
      ],
      "name": "withdraw",
      "outputs": [],
      "stateMutability": "nonpayable",
      "type": "function"
    },
    {
      "inputs": [
        {
          "internalType": "address",
          "name": "",
          "type": "address"
        },
        {
          "internalType": "address",
          "name": "",
          "type": "address"
        }
      ],
      "name": "withdrawable",
      "outputs": [
        {
          "internalType": "uint256",
          "name": "",
          "type": "uint256"
        }
      ],
      "stateMutability": "view",
      "type": "function"
    }
  ],
  "bytecode": "0x6080604052348015600e575f5ffd5b5060015f81905550615701806100235f395ff3fe608060405234801561000f575f5ffd5b50600436106100f3575f3560e01c80637b3ca20011610095578063ccf1a4b211610064578063ccf1a4b2146102a4578063d78974d7146102d7578063db88176f14610307578063f2801fe714610337576100f3565b80637b3ca20014610220578063962131701461023c578063c0314d2714610258578063c9cf7c9d14610288576100f3565b806331b1b978116100d157806331b1b9781461017d57806335f3ad7a146101b85780634b7c48e5146101e857806351cff8d914610204576100f3565b806302e060c6146100f75780631468aa2c1461012b5780632ff75c5914610149575b5f5ffd5b610111600480360381019061010c9190613d89565b61036e565b604051610122959493929190613e0b565b60405180910390f35b6101336103db565b6040516101409190613e5c565b60405180910390f35b610163600480360381019061015e9190613e75565b6103e1565b604051610174959493929190613eb3565b60405180910390f35b61019760048036038101906101929190613f04565b61041e565b6040516101af9c9b9a99989796959493929190614039565b60405180910390f35b6101d260048036038101906101cd9190613d89565b61054a565b6040516101df919061418b565b60405180910390f35b61020260048036038101906101fd91906141ce565b610624565b005b61021e6004803603810190610219919061420c565b610df8565b005b61023a60048036038101906102359190614298565b611241565b005b6102566004803603810190610251919061431f565b611871565b005b610272600480360381019061026d9190613e75565b612769565b60405161027f9190613e5c565b60405180910390f35b6102a2600480360381019061029d9190613f04565b612789565b005b6102be60048036038101906102b99190613e75565b612de9565b6040516102ce94939291906143bb565b60405180910390f35b6102f160048036038101906102ec9190614453565b612f83565b6040516102fe9190613e5c565b60405180910390f35b610321600480360381019061031c9190613f04565b61368c565b60405161032e9190614686565b60405180910390f35b610351600480360381019061034c9190613e75565b61387b565b60405161036598979695949392919061474e565b60405180910390f35b6003602052815f5260405f20602052805f5260405f205f9150915050805f015f9054906101000a900460ff1690805f0160019054906101000a900460ff1690805f0160029054906101000a900460ff1690806001015490806002015f9054906101000a900460ff16905085565b60015481565b6005602052815f5260405f20602052805f5260405f205f9150915050805f0154908060010154908060020154908060030154908060040154905085565b6002602052805f5260405f205f91509050805f015f9054906101000a900473ffffffffffffffffffffffffffffffffffffffff1690806001015f9054906101000a900473ffffffffffffffffffffffffffffffffffffffff169080600201805461048790614805565b80601f01602080910402602001604051908101604052809291908181526020018280546104b390614805565b80156104fe5780601f106104d5576101008083540402835291602001916104fe565b820191905f5260205f20905b8154815290600101906020018083116104e157829003601f168201915b505050505090806003015490806004015490806005015490806006015490806007015490806008015f9054906101000a900460ff169080600901549080600a01549080600b015490508c565b610552613c2d565b60035f8481526020019081526020015f205f8373ffffffffffffffffffffffffffffffffffffffff1673ffffffffffffffffffffffffffffffffffffffff1681526020019081526020015f206040518060a00160405290815f82015f9054906101000a900460ff161515151581526020015f820160019054906101000a900460ff1660ff1660ff1681526020015f820160029054906101000a900460ff1615151515815260200160018201548152602001600282015f9054906101000a900460ff161515151581525050905092915050565b61062c613a3a565b5f60025f8481526020019081526020015f2090505f73ffffffffffffffffffffffffffffffffffffffff16815f015f9054906101000a900473ffffffffffffffffffffffffffffffffffffffff1673ffffffffffffffffffffffffffffffffffffffff16036106d0576040517f08c379a00000000000000000000000000000000000000000000000000000000081526004016106c79061487f565b60405180910390fd5b806005015442101580156106e8575080600601544211155b610727576040517f08c379a000000000000000000000000000000000000000000000000000000000815260040161071e906148e7565b60405180910390fd5b5f600381111561073a57610739613fc6565b5b816008015f9054906101000a900460ff16600381111561075d5761075c613fc6565b5b1461079d576040517f08c379a00000000000000000000000000000000000000000000000000000000081526004016107949061494f565b60405180910390fd5b5f60035f8581526020019081526020015f205f3373ffffffffffffffffffffffffffffffffffffffff1673ffffffffffffffffffffffffffffffffffffffff1681526020019081526020015f209050805f015f9054906101000a900460ff161561083c576040517f08c379a0000000000000000000000000000000000000000000000000000000008152600401610833906149b7565b60405180910390fd5b60ff8360ff161115610883576040517f08c379a000000000000000000000000000000000000000000000000000000000815260040161087a90614a1f565b60405180910390fd5b6108d733308460040154856001015f9054906101000a900473ffffffffffffffffffffffffffffffffffffffff1673ffffffffffffffffffffffffffffffffffffffff16613a7e909392919063ffffffff16565b816004015460055f846001015f9054906101000a900473ffffffffffffffffffffffffffffffffffffffff1673ffffffffffffffffffffffffffffffffffffffff1673ffffffffffffffffffffffffffffffffffffffff1681526020019081526020015f205f3373ffffffffffffffffffffffffffffffffffffffff1673ffffffffffffffffffffffffffffffffffffffff1681526020019081526020015f205f015f8282546109879190614a6a565b92505081905550816001015f9054906101000a900473ffffffffffffffffffffffffffffffffffffffff1673ffffffffffffffffffffffffffffffffffffffff163373ffffffffffffffffffffffffffffffffffffffff167f4077f59075cbe5c74847f78ad37315ace865034daab3c19ff17155644d89c45660055f866001015f9054906101000a900473ffffffffffffffffffffffffffffffffffffffff1673ffffffffffffffffffffffffffffffffffffffff1673ffffffffffffffffffffffffffffffffffffffff1681526020019081526020015f205f3373ffffffffffffffffffffffffffffffffffffffff1673ffffffffffffffffffffffffffffffffffffffff1681526020019081526020015f205f015460055f876001015f9054906101000a900473ffffffffffffffffffffffffffffffffffffffff1673ffffffffffffffffffffffffffffffffffffffff1673ffffffffffffffffffffffffffffffffffffffff1681526020019081526020015f205f3373ffffffffffffffffffffffffffffffffffffffff1673ffffffffffffffffffffffffffffffffffffffff1681526020019081526020015f206001015460055f886001015f9054906101000a900473ffffffffffffffffffffffffffffffffffffffff1673ffffffffffffffffffffffffffffffffffffffff1673ffffffffffffffffffffffffffffffffffffffff1681526020019081526020015f205f3373ffffffffffffffffffffffffffffffffffffffff1673ffffffffffffffffffffffffffffffffffffffff1681526020019081526020015f2060020154604051610beb93929190614a9d565b60405180910390a36001815f015f6101000a81548160ff02191690831515021790555082815f0160016101000a81548160ff021916908360ff160217905550816004015481600101819055505f815f0160026101000a81548160ff0219169083151502179055505f816002015f6101000a81548160ff0219169083151502179055508160040154826009015f828254610c849190614a6a565b9250508190555060055f836001015f9054906101000a900473ffffffffffffffffffffffffffffffffffffffff1673ffffffffffffffffffffffffffffffffffffffff1673ffffffffffffffffffffffffffffffffffffffff1681526020019081526020015f205f3373ffffffffffffffffffffffffffffffffffffffff1673ffffffffffffffffffffffffffffffffffffffff1681526020019081526020015f2060050184908060018154018082558091505060019003905f5260205f20015f90919091909150553373ffffffffffffffffffffffffffffffffffffffff16847fa352413be94997fe5b3d6283fffef6e060bd09e5b0b02ecad94b09fe8e141ba1858560040154604051610d9a929190614ad2565b60405180910390a3837fff8d7a7c654bb0766b7a67612eaf4a15f4c026ea4b577bc167f0388aafcdd0128360090154610dd287613b00565b42604051610de293929190614a9d565b60405180910390a25050610df4613b0a565b5050565b610e00613a3a565b5f60045f8373ffffffffffffffffffffffffffffffffffffffff1673ffffffffffffffffffffffffffffffffffffffff1681526020019081526020015f205f3373ffffffffffffffffffffffffffffffffffffffff1673ffffffffffffffffffffffffffffffffffffffff1681526020019081526020015f205490505f8111610ebe576040517f08c379a0000000000000000000000000000000000000000000000000000000008152600401610eb590614b43565b60405180910390fd5b5f60045f8473ffffffffffffffffffffffffffffffffffffffff1673ffffffffffffffffffffffffffffffffffffffff1681526020019081526020015f205f3373ffffffffffffffffffffffffffffffffffffffff1673ffffffffffffffffffffffffffffffffffffffff1681526020019081526020015f20819055508060055f8473ffffffffffffffffffffffffffffffffffffffff1673ffffffffffffffffffffffffffffffffffffffff1681526020019081526020015f205f3373ffffffffffffffffffffffffffffffffffffffff1673ffffffffffffffffffffffffffffffffffffffff1681526020019081526020015f206002015f828254610fc59190614a6a565b925050819055508173ffffffffffffffffffffffffffffffffffffffff163373ffffffffffffffffffffffffffffffffffffffff167f4077f59075cbe5c74847f78ad37315ace865034daab3c19ff17155644d89c45660055f8673ffffffffffffffffffffffffffffffffffffffff1673ffffffffffffffffffffffffffffffffffffffff1681526020019081526020015f205f3373ffffffffffffffffffffffffffffffffffffffff1673ffffffffffffffffffffffffffffffffffffffff1681526020019081526020015f205f015460055f8773ffffffffffffffffffffffffffffffffffffffff1673ffffffffffffffffffffffffffffffffffffffff1681526020019081526020015f205f3373ffffffffffffffffffffffffffffffffffffffff1673ffffffffffffffffffffffffffffffffffffffff1681526020019081526020015f206001015460055f8873ffffffffffffffffffffffffffffffffffffffff1673ffffffffffffffffffffffffffffffffffffffff1681526020019081526020015f205f3373ffffffffffffffffffffffffffffffffffffffff1673ffffffffffffffffffffffffffffffffffffffff1681526020019081526020015f206002015460405161119d93929190614a9d565b60405180910390a36111d033828473ffffffffffffffffffffffffffffffffffffffff16613b139092919063ffffffff16565b8173ffffffffffffffffffffffffffffffffffffffff163373ffffffffffffffffffffffffffffffffffffffff167fd1c19fbcd4551a5edfb66d43d2e337c04837afda3482b42bdf569a8fccdae5fb8360405161122d9190613e5c565b60405180910390a35061123e613b0a565b50565b611249613a3a565b5f60025f8581526020019081526020015f2090505f73ffffffffffffffffffffffffffffffffffffffff16815f015f9054906101000a900473ffffffffffffffffffffffffffffffffffffffff1673ffffffffffffffffffffffffffffffffffffffff16036112ed576040517f08c379a00000000000000000000000000000000000000000000000000000000081526004016112e490614bab565b60405180910390fd5b6002600381111561130157611300613fc6565b5b816008015f9054906101000a900460ff16600381111561132457611323613fc6565b5b14611364576040517f08c379a000000000000000000000000000000000000000000000000000000000815260040161135b90614c13565b60405180910390fd5b80600b01544210156113ab576040517f08c379a00000000000000000000000000000000000000000000000000000000081526004016113a290614c7b565b60405180910390fd5b5f5f90505b83839050811015611862575f8484838181106113cf576113ce614c99565b5b90506020020160208101906113e4919061420c565b90505f60035f8881526020019081526020015f205f8373ffffffffffffffffffffffffffffffffffffffff1673ffffffffffffffffffffffffffffffffffffffff1681526020019081526020015f209050805f015f9054906101000a900460ff16801561145f5750806002015f9054906101000a900460ff16155b1561185357806001015460045f866001015f9054906101000a900473ffffffffffffffffffffffffffffffffffffffff1673ffffffffffffffffffffffffffffffffffffffff1673ffffffffffffffffffffffffffffffffffffffff1681526020019081526020015f205f8473ffffffffffffffffffffffffffffffffffffffff1673ffffffffffffffffffffffffffffffffffffffff1681526020019081526020015f205f8282546115129190614a6a565b92505081905550806001015460055f866001015f9054906101000a900473ffffffffffffffffffffffffffffffffffffffff1673ffffffffffffffffffffffffffffffffffffffff1673ffffffffffffffffffffffffffffffffffffffff1681526020019081526020015f205f8473ffffffffffffffffffffffffffffffffffffffff1673ffffffffffffffffffffffffffffffffffffffff1681526020019081526020015f206001015f8282546115ca9190614a6a565b92505081905550836001015f9054906101000a900473ffffffffffffffffffffffffffffffffffffffff1673ffffffffffffffffffffffffffffffffffffffff168273ffffffffffffffffffffffffffffffffffffffff167f4077f59075cbe5c74847f78ad37315ace865034daab3c19ff17155644d89c45660055f886001015f9054906101000a900473ffffffffffffffffffffffffffffffffffffffff1673ffffffffffffffffffffffffffffffffffffffff1673ffffffffffffffffffffffffffffffffffffffff1681526020019081526020015f205f8673ffffffffffffffffffffffffffffffffffffffff1673ffffffffffffffffffffffffffffffffffffffff1681526020019081526020015f205f015460055f896001015f9054906101000a900473ffffffffffffffffffffffffffffffffffffffff1673ffffffffffffffffffffffffffffffffffffffff1673ffffffffffffffffffffffffffffffffffffffff1681526020019081526020015f205f8773ffffffffffffffffffffffffffffffffffffffff1673ffffffffffffffffffffffffffffffffffffffff1681526020019081526020015f206001015460055f8a6001015f9054906101000a900473ffffffffffffffffffffffffffffffffffffffff1673ffffffffffffffffffffffffffffffffffffffff1673ffffffffffffffffffffffffffffffffffffffff1681526020019081526020015f205f8873ffffffffffffffffffffffffffffffffffffffff1673ffffffffffffffffffffffffffffffffffffffff1681526020019081526020015f206002015460405161182e93929190614a9d565b60405180910390a36001816002015f6101000a81548160ff0219169083151502179055505b505080806001019150506113b0565b505061186c613b0a565b505050565b611879613a3a565b843373ffffffffffffffffffffffffffffffffffffffff1660025f8381526020019081526020015f205f015f9054906101000a900473ffffffffffffffffffffffffffffffffffffffff1673ffffffffffffffffffffffffffffffffffffffff161461191a576040517f08c379a000000000000000000000000000000000000000000000000000000000815260040161191190614d10565b60405180910390fd5b5f60025f8881526020019081526020015f20905080600601544211611974576040517f08c379a000000000000000000000000000000000000000000000000000000000815260040161196b90614d78565b60405180910390fd5b5f600381111561198757611986613fc6565b5b816008015f9054906101000a900460ff1660038111156119aa576119a9613fc6565b5b146119ea576040517f08c379a00000000000000000000000000000000000000000000000000000000081526004016119e190614de0565b60405180910390fd5b80600701548686604051602001611a02929190614e52565b6040516020818303038152906040528051906020012014611a58576040517f08c379a0000000000000000000000000000000000000000000000000000000008152600401611a4f90614ec7565b60405180910390fd5b5f5f90505f5f90505b85859050811015611b70575f868683818110611a8057611a7f614c99565b5b9050602002016020810190611a95919061420c565b90505f60035f8c81526020019081526020015f205f8373ffffffffffffffffffffffffffffffffffffffff1673ffffffffffffffffffffffffffffffffffffffff1681526020019081526020015f209050805f015f9054906101000a900460ff168015611b1757508960ff16815f0160019054906101000a900460ff1660ff16145b8015611b315750805f0160029054906101000a900460ff16155b15611b61576001815f0160026101000a81548160ff0219169083151502179055508380611b5d90614ee5565b9450505b50508080600101915050611a61565b508082600a01819055505f81111561269d575f826009015490505f811115612029578060045f856001015f9054906101000a900473ffffffffffffffffffffffffffffffffffffffff1673ffffffffffffffffffffffffffffffffffffffff1673ffffffffffffffffffffffffffffffffffffffff1681526020019081526020015f205f855f015f9054906101000a900473ffffffffffffffffffffffffffffffffffffffff1673ffffffffffffffffffffffffffffffffffffffff1673ffffffffffffffffffffffffffffffffffffffff1681526020019081526020015f205f828254611c5e9190614a6a565b925050819055508060055f856001015f9054906101000a900473ffffffffffffffffffffffffffffffffffffffff1673ffffffffffffffffffffffffffffffffffffffff1673ffffffffffffffffffffffffffffffffffffffff1681526020019081526020015f205f855f015f9054906101000a900473ffffffffffffffffffffffffffffffffffffffff1673ffffffffffffffffffffffffffffffffffffffff1673ffffffffffffffffffffffffffffffffffffffff1681526020019081526020015f206001015f828254611d349190614a6a565b92505081905550826001015f9054906101000a900473ffffffffffffffffffffffffffffffffffffffff1673ffffffffffffffffffffffffffffffffffffffff16835f015f9054906101000a900473ffffffffffffffffffffffffffffffffffffffff1673ffffffffffffffffffffffffffffffffffffffff167f4077f59075cbe5c74847f78ad37315ace865034daab3c19ff17155644d89c45660055f876001015f9054906101000a900473ffffffffffffffffffffffffffffffffffffffff1673ffffffffffffffffffffffffffffffffffffffff1673ffffffffffffffffffffffffffffffffffffffff1681526020019081526020015f205f875f015f9054906101000a900473ffffffffffffffffffffffffffffffffffffffff1673ffffffffffffffffffffffffffffffffffffffff1673ffffffffffffffffffffffffffffffffffffffff1681526020019081526020015f205f015460055f886001015f9054906101000a900473ffffffffffffffffffffffffffffffffffffffff1673ffffffffffffffffffffffffffffffffffffffff1673ffffffffffffffffffffffffffffffffffffffff1681526020019081526020015f205f885f015f9054906101000a900473ffffffffffffffffffffffffffffffffffffffff1673ffffffffffffffffffffffffffffffffffffffff1673ffffffffffffffffffffffffffffffffffffffff1681526020019081526020015f206001015460055f896001015f9054906101000a900473ffffffffffffffffffffffffffffffffffffffff1673ffffffffffffffffffffffffffffffffffffffff1673ffffffffffffffffffffffffffffffffffffffff1681526020019081526020015f205f895f015f9054906101000a900473ffffffffffffffffffffffffffffffffffffffff1673ffffffffffffffffffffffffffffffffffffffff1673ffffffffffffffffffffffffffffffffffffffff1681526020019081526020015f206002015460405161202093929190614a9d565b60405180910390a35b5f836003015490505f838261203e9190614f59565b90505f5f90505b888890508110156125a0575f89898381811061206457612063614c99565b5b9050602002016020810190612079919061420c565b90505f60035f8f81526020019081526020015f205f8373ffffffffffffffffffffffffffffffffffffffff1673ffffffffffffffffffffffffffffffffffffffff1681526020019081526020015f209050805f015f9054906101000a900460ff1680156120f35750805f0160029054906101000a900460ff165b801561210d5750806002015f9054906101000a900460ff16155b15612591578360045f8a6001015f9054906101000a900473ffffffffffffffffffffffffffffffffffffffff1673ffffffffffffffffffffffffffffffffffffffff1673ffffffffffffffffffffffffffffffffffffffff1681526020019081526020015f205f8473ffffffffffffffffffffffffffffffffffffffff1673ffffffffffffffffffffffffffffffffffffffff1681526020019081526020015f205f8282546121bc9190614a6a565b925050819055508360055f8a6001015f9054906101000a900473ffffffffffffffffffffffffffffffffffffffff1673ffffffffffffffffffffffffffffffffffffffff1673ffffffffffffffffffffffffffffffffffffffff1681526020019081526020015f205f8473ffffffffffffffffffffffffffffffffffffffff1673ffffffffffffffffffffffffffffffffffffffff1681526020019081526020015f206001015f8282546122709190614a6a565b925050819055508360055f8a6001015f9054906101000a900473ffffffffffffffffffffffffffffffffffffffff1673ffffffffffffffffffffffffffffffffffffffff1673ffffffffffffffffffffffffffffffffffffffff1681526020019081526020015f205f8473ffffffffffffffffffffffffffffffffffffffff1673ffffffffffffffffffffffffffffffffffffffff1681526020019081526020015f206003015f8282546123249190614a6a565b92505081905550876001015f9054906101000a900473ffffffffffffffffffffffffffffffffffffffff1673ffffffffffffffffffffffffffffffffffffffff168273ffffffffffffffffffffffffffffffffffffffff167f4077f59075cbe5c74847f78ad37315ace865034daab3c19ff17155644d89c45660055f8c6001015f9054906101000a900473ffffffffffffffffffffffffffffffffffffffff1673ffffffffffffffffffffffffffffffffffffffff1673ffffffffffffffffffffffffffffffffffffffff1681526020019081526020015f205f8673ffffffffffffffffffffffffffffffffffffffff1673ffffffffffffffffffffffffffffffffffffffff1681526020019081526020015f205f015460055f8d6001015f9054906101000a900473ffffffffffffffffffffffffffffffffffffffff1673ffffffffffffffffffffffffffffffffffffffff1673ffffffffffffffffffffffffffffffffffffffff1681526020019081526020015f205f8773ffffffffffffffffffffffffffffffffffffffff1673ffffffffffffffffffffffffffffffffffffffff1681526020019081526020015f206001015460055f8e6001015f9054906101000a900473ffffffffffffffffffffffffffffffffffffffff1673ffffffffffffffffffffffffffffffffffffffff1673ffffffffffffffffffffffffffffffffffffffff1681526020019081526020015f205f8873ffffffffffffffffffffffffffffffffffffffff1673ffffffffffffffffffffffffffffffffffffffff1681526020019081526020015f206002015460405161258893929190614a9d565b60405180910390a35b50508080600101915050612045565b505f5f90505b888890508110156125ea575f8989838181106125c5576125c4614c99565b5b90506020020160208101906125da919061420c565b90505080806001019150506125a6565b506003856008015f6101000a81548160ff0219169083600381111561261257612611613fc6565b5b02179055508a7f3b69e62ab984828f057eaecfd13c661932d5d48840d4fda4507de8bac5e3163d8b86604051612649929190614ad2565b60405180910390a28a7fc0931ab5ee65eff08c00a4132c2d00665f5173cd1219518035572aedbdf76675866009015487600301548460405161268d93929190614a9d565b60405180910390a2505050612757565b6002826008015f6101000a81548160ff021916908360038111156126c4576126c3613fc6565b5b021790555062093a80426126d89190614a6a565b82600b0181905550877f3b69e62ab984828f057eaecfd13c661932d5d48840d4fda4507de8bac5e3163d885f604051612712929190614fcb565b60405180910390a2877fb42800031693fa2f3c097458c5b826dd62946637af7e9c0a94c938205db4a61f83600b015460405161274e9190613e5c565b60405180910390a25b505050612762613b0a565b5050505050565b6004602052815f5260405f20602052805f5260405f205f91509150505481565b612791613a3a565b5f60025f8381526020019081526020015f209050600260038111156127b9576127b8613fc6565b5b816008015f9054906101000a900460ff1660038111156127dc576127db613fc6565b5b1461281c576040517f08c379a00000000000000000000000000000000000000000000000000000000081526004016128139061503c565b60405180910390fd5b80600b0154421015612863576040517f08c379a000000000000000000000000000000000000000000000000000000000815260040161285a906150a4565b60405180910390fd5b805f015f9054906101000a900473ffffffffffffffffffffffffffffffffffffffff1673ffffffffffffffffffffffffffffffffffffffff163373ffffffffffffffffffffffffffffffffffffffff16146128f3576040517f08c379a00000000000000000000000000000000000000000000000000000000081526004016128ea9061510c565b60405180910390fd5b5f816003015490505f811161293d576040517f08c379a000000000000000000000000000000000000000000000000000000000815260040161293490615174565b60405180910390fd5b5f82600301819055508060045f846001015f9054906101000a900473ffffffffffffffffffffffffffffffffffffffff1673ffffffffffffffffffffffffffffffffffffffff1673ffffffffffffffffffffffffffffffffffffffff1681526020019081526020015f205f845f015f9054906101000a900473ffffffffffffffffffffffffffffffffffffffff1673ffffffffffffffffffffffffffffffffffffffff1673ffffffffffffffffffffffffffffffffffffffff1681526020019081526020015f205f828254612a129190614a6a565b925050819055508060055f846001015f9054906101000a900473ffffffffffffffffffffffffffffffffffffffff1673ffffffffffffffffffffffffffffffffffffffff1673ffffffffffffffffffffffffffffffffffffffff1681526020019081526020015f205f845f015f9054906101000a900473ffffffffffffffffffffffffffffffffffffffff1673ffffffffffffffffffffffffffffffffffffffff1673ffffffffffffffffffffffffffffffffffffffff1681526020019081526020015f206001015f828254612ae89190614a6a565b92505081905550816001015f9054906101000a900473ffffffffffffffffffffffffffffffffffffffff1673ffffffffffffffffffffffffffffffffffffffff16825f015f9054906101000a900473ffffffffffffffffffffffffffffffffffffffff1673ffffffffffffffffffffffffffffffffffffffff167f4077f59075cbe5c74847f78ad37315ace865034daab3c19ff17155644d89c45660055f866001015f9054906101000a900473ffffffffffffffffffffffffffffffffffffffff1673ffffffffffffffffffffffffffffffffffffffff1673ffffffffffffffffffffffffffffffffffffffff1681526020019081526020015f205f865f015f9054906101000a900473ffffffffffffffffffffffffffffffffffffffff1673ffffffffffffffffffffffffffffffffffffffff1673ffffffffffffffffffffffffffffffffffffffff1681526020019081526020015f205f015460055f876001015f9054906101000a900473ffffffffffffffffffffffffffffffffffffffff1673ffffffffffffffffffffffffffffffffffffffff1673ffffffffffffffffffffffffffffffffffffffff1681526020019081526020015f205f875f015f9054906101000a900473ffffffffffffffffffffffffffffffffffffffff1673ffffffffffffffffffffffffffffffffffffffff1673ffffffffffffffffffffffffffffffffffffffff1681526020019081526020015f206001015460055f886001015f9054906101000a900473ffffffffffffffffffffffffffffffffffffffff1673ffffffffffffffffffffffffffffffffffffffff1673ffffffffffffffffffffffffffffffffffffffff1681526020019081526020015f205f885f015f9054906101000a900473ffffffffffffffffffffffffffffffffffffffff1673ffffffffffffffffffffffffffffffffffffffff1673ffffffffffffffffffffffffffffffffffffffff1681526020019081526020015f2060020154604051612dd493929190614a9d565b60405180910390a35050612de6613b0a565b50565b5f5f5f5f5f60055f8873ffffffffffffffffffffffffffffffffffffffff1673ffffffffffffffffffffffffffffffffffffffff1681526020019081526020015f205f8773ffffffffffffffffffffffffffffffffffffffff1673ffffffffffffffffffffffffffffffffffffffff1681526020019081526020015f206040518060e00160405290815f82015481526020016001820154815260200160028201548152602001600382015481526020016004820154815260200160058201805480602002602001604051908101604052809291908181526020018280548015612eef57602002820191905f5260205f20905b815481526020019060010190808311612edb575b5050505050815260200160068201805480602002602001604051908101604052809291908181526020018280548015612f4557602002820191905f5260205f20905b815481526020019060010190808311612f31575b5050505050815250509050805f015194508060200151935080604001519250805f01518160200151612f779190615192565b91505092959194509250565b5f612f8c613a3a565b828211612fce576040517f08c379a0000000000000000000000000000000000000000000000000000000008152600401612fc59061521c565b60405180910390fd5b5f8511613010576040517f08c379a000000000000000000000000000000000000000000000000000000000815260040161300790615284565b60405180910390fd5b5f8411613052576040517f08c379a0000000000000000000000000000000000000000000000000000000008152600401613049906152ec565b60405180910390fd5b5f73ffffffffffffffffffffffffffffffffffffffff168973ffffffffffffffffffffffffffffffffffffffff16036130c0576040517f08c379a00000000000000000000000000000000000000000000000000000000081526004016130b790615354565b60405180910390fd5b6130ed3330878c73ffffffffffffffffffffffffffffffffffffffff16613a7e909392919063ffffffff16565b8460055f8b73ffffffffffffffffffffffffffffffffffffffff1673ffffffffffffffffffffffffffffffffffffffff1681526020019081526020015f205f3373ffffffffffffffffffffffffffffffffffffffff1673ffffffffffffffffffffffffffffffffffffffff1681526020019081526020015f205f015f8282546131769190614a6a565b925050819055508873ffffffffffffffffffffffffffffffffffffffff163373ffffffffffffffffffffffffffffffffffffffff167f4077f59075cbe5c74847f78ad37315ace865034daab3c19ff17155644d89c45660055f8d73ffffffffffffffffffffffffffffffffffffffff1673ffffffffffffffffffffffffffffffffffffffff1681526020019081526020015f205f3373ffffffffffffffffffffffffffffffffffffffff1673ffffffffffffffffffffffffffffffffffffffff1681526020019081526020015f205f015460055f8e73ffffffffffffffffffffffffffffffffffffffff1673ffffffffffffffffffffffffffffffffffffffff1681526020019081526020015f205f3373ffffffffffffffffffffffffffffffffffffffff1673ffffffffffffffffffffffffffffffffffffffff1681526020019081526020015f206001015460055f8f73ffffffffffffffffffffffffffffffffffffffff1673ffffffffffffffffffffffffffffffffffffffff1681526020019081526020015f205f3373ffffffffffffffffffffffffffffffffffffffff1673ffffffffffffffffffffffffffffffffffffffff1681526020019081526020015f206002015460405161334e93929190614a9d565b60405180910390a36001805f8282546133679190614a6a565b925050819055505f60015490506040518061018001604052803373ffffffffffffffffffffffffffffffffffffffff1681526020018b73ffffffffffffffffffffffffffffffffffffffff1681526020018a8a8080601f0160208091040260200160405190810160405280939291908181526020018383808284375f81840152601f19601f8201169050808301925050505050505081526020018781526020018681526020018581526020018481526020018881526020015f600381111561343257613431613fc6565b5b81526020015f81526020015f81526020015f81525060025f8381526020019081526020015f205f820151815f015f6101000a81548173ffffffffffffffffffffffffffffffffffffffff021916908373ffffffffffffffffffffffffffffffffffffffff1602179055506020820151816001015f6101000a81548173ffffffffffffffffffffffffffffffffffffffff021916908373ffffffffffffffffffffffffffffffffffffffff16021790555060408201518160020190816134f79190615536565b50606082015181600301556080820151816004015560a0820151816005015560c0820151816006015560e08201518160070155610100820151816008015f6101000a81548160ff0219169083600381111561355557613554613fc6565b5b0217905550610120820151816009015561014082015181600a015561016082015181600b015590505060055f8b73ffffffffffffffffffffffffffffffffffffffff1673ffffffffffffffffffffffffffffffffffffffff1681526020019081526020015f205f3373ffffffffffffffffffffffffffffffffffffffff1673ffffffffffffffffffffffffffffffffffffffff1681526020019081526020015f2060060181908060018154018082558091505060019003905f5260205f20015f90919091909150553373ffffffffffffffffffffffffffffffffffffffff16817f2053677d09bec7b3f35e60c28dce8df04d5ac45df7152cb54becec98a587e05e8c8989898960405161366c959493929190615605565b60405180910390a380915050613680613b0a565b98975050505050505050565b613694613c60565b60025f8381526020019081526020015f20604051806101800160405290815f82015f9054906101000a900473ffffffffffffffffffffffffffffffffffffffff1673ffffffffffffffffffffffffffffffffffffffff1673ffffffffffffffffffffffffffffffffffffffff168152602001600182015f9054906101000a900473ffffffffffffffffffffffffffffffffffffffff1673ffffffffffffffffffffffffffffffffffffffff1673ffffffffffffffffffffffffffffffffffffffff16815260200160028201805461376a90614805565b80601f016020809104026020016040519081016040528092919081815260200182805461379690614805565b80156137e15780601f106137b8576101008083540402835291602001916137e1565b820191905f5260205f20905b8154815290600101906020018083116137c457829003601f168201915b505050505081526020016003820154815260200160048201548152602001600582015481526020016006820154815260200160078201548152602001600882015f9054906101000a900460ff1660038111156138405761383f613fc6565b5b600381111561385257613851613fc6565b5b815260200160098201548152602001600a8201548152602001600b820154815250509050919050565b5f5f5f5f5f6060805f5f60055f8c73ffffffffffffffffffffffffffffffffffffffff1673ffffffffffffffffffffffffffffffffffffffff1681526020019081526020015f205f8b73ffffffffffffffffffffffffffffffffffffffff1673ffffffffffffffffffffffffffffffffffffffff1681526020019081526020015f206040518060e00160405290815f8201548152602001600182015481526020016002820154815260200160038201548152602001600482015481526020016005820180548060200260200160405190810160405280929190818152602001828054801561398657602002820191905f5260205f20905b815481526020019060010190808311613972575b50505050508152602001600682018054806020026020016040519081016040528092919081815260200182805480156139dc57602002820191905f5260205f20905b8154815260200190600101908083116139c8575b5050505050815250509050805f015181602001518260400151836060015184608001518560a001518660c00151875f01518860200151613a1c9190615192565b98509850985098509850985098509850509295985092959890939650565b60025f5403613a75576040517f3ee5aeb500000000000000000000000000000000000000000000000000000000815260040160405180910390fd5b60025f81905550565b613afa848573ffffffffffffffffffffffffffffffffffffffff166323b872dd868686604051602401613ab393929190615656565b604051602081830303815290604052915060e01b6020820180517bffffffffffffffffffffffffffffffffffffffffffffffffffffffff8381831617835250505050613b92565b50505050565b5f60019050919050565b60015f81905550565b613b8d838473ffffffffffffffffffffffffffffffffffffffff1663a9059cbb8585604051602401613b4692919061568b565b604051602081830303815290604052915060e01b6020820180517bffffffffffffffffffffffffffffffffffffffffffffffffffffffff8381831617835250505050613b92565b505050565b5f5f60205f8451602086015f885af180613bb1576040513d5f823e3d81fd5b3d92505f519150505f8214613bca576001811415613be5565b5f8473ffffffffffffffffffffffffffffffffffffffff163b145b15613c2757836040517f5274afe7000000000000000000000000000000000000000000000000000000008152600401613c1e91906156b2565b60405180910390fd5b50505050565b6040518060a001604052805f151581526020015f60ff1681526020015f151581526020015f81526020015f151581525090565b6040518061018001604052805f73ffffffffffffffffffffffffffffffffffffffff1681526020015f73ffffffffffffffffffffffffffffffffffffffff168152602001606081526020015f81526020015f81526020015f81526020015f81526020015f81526020015f6003811115613cdc57613cdb613fc6565b5b81526020015f81526020015f81526020015f81525090565b5f5ffd5b5f5ffd5b5f819050919050565b613d0e81613cfc565b8114613d18575f5ffd5b50565b5f81359050613d2981613d05565b92915050565b5f73ffffffffffffffffffffffffffffffffffffffff82169050919050565b5f613d5882613d2f565b9050919050565b613d6881613d4e565b8114613d72575f5ffd5b50565b5f81359050613d8381613d5f565b92915050565b5f5f60408385031215613d9f57613d9e613cf4565b5b5f613dac85828601613d1b565b9250506020613dbd85828601613d75565b9150509250929050565b5f8115159050919050565b613ddb81613dc7565b82525050565b5f60ff82169050919050565b613df681613de1565b82525050565b613e0581613cfc565b82525050565b5f60a082019050613e1e5f830188613dd2565b613e2b6020830187613ded565b613e386040830186613dd2565b613e456060830185613dfc565b613e526080830184613dd2565b9695505050505050565b5f602082019050613e6f5f830184613dfc565b92915050565b5f5f60408385031215613e8b57613e8a613cf4565b5b5f613e9885828601613d75565b9250506020613ea985828601613d75565b9150509250929050565b5f60a082019050613ec65f830188613dfc565b613ed36020830187613dfc565b613ee06040830186613dfc565b613eed6060830185613dfc565b613efa6080830184613dfc565b9695505050505050565b5f60208284031215613f1957613f18613cf4565b5b5f613f2684828501613d1b565b91505092915050565b613f3881613d4e565b82525050565b5f81519050919050565b5f82825260208201905092915050565b8281835e5f83830152505050565b5f601f19601f8301169050919050565b5f613f8082613f3e565b613f8a8185613f48565b9350613f9a818560208601613f58565b613fa381613f66565b840191505092915050565b5f819050919050565b613fc081613fae565b82525050565b7f4e487b71000000000000000000000000000000000000000000000000000000005f52602160045260245ffd5b6004811061400457614003613fc6565b5b50565b5f81905061401482613ff3565b919050565b5f61402382614007565b9050919050565b61403381614019565b82525050565b5f6101808201905061404d5f83018f613f2f565b61405a602083018e613f2f565b818103604083015261406c818d613f76565b905061407b606083018c613dfc565b614088608083018b613dfc565b61409560a083018a613dfc565b6140a260c0830189613dfc565b6140af60e0830188613fb7565b6140bd61010083018761402a565b6140cb610120830186613dfc565b6140d9610140830185613dfc565b6140e7610160830184613dfc565b9d9c50505050505050505050505050565b61410181613dc7565b82525050565b61411081613de1565b82525050565b61411f81613cfc565b82525050565b60a082015f8201516141395f8501826140f8565b50602082015161414c6020850182614107565b50604082015161415f60408501826140f8565b5060608201516141726060850182614116565b50608082015161418560808501826140f8565b50505050565b5f60a08201905061419e5f830184614125565b92915050565b6141ad81613de1565b81146141b7575f5ffd5b50565b5f813590506141c8816141a4565b92915050565b5f5f604083850312156141e4576141e3613cf4565b5b5f6141f185828601613d1b565b9250506020614202858286016141ba565b9150509250929050565b5f6020828403121561422157614220613cf4565b5b5f61422e84828501613d75565b91505092915050565b5f5ffd5b5f5ffd5b5f5ffd5b5f5f83601f84011261425857614257614237565b5b8235905067ffffffffffffffff8111156142755761427461423b565b5b6020830191508360208202830111156142915761429061423f565b5b9250929050565b5f5f5f604084860312156142af576142ae613cf4565b5b5f6142bc86828701613d1b565b935050602084013567ffffffffffffffff8111156142dd576142dc613cf8565b5b6142e986828701614243565b92509250509250925092565b6142fe81613fae565b8114614308575f5ffd5b50565b5f81359050614319816142f5565b92915050565b5f5f5f5f5f6080868803121561433857614337613cf4565b5b5f61434588828901613d1b565b9550506020614356888289016141ba565b94505060406143678882890161430b565b935050606086013567ffffffffffffffff81111561438857614387613cf8565b5b61439488828901614243565b92509250509295509295909350565b5f819050919050565b6143b5816143a3565b82525050565b5f6080820190506143ce5f830187613dfc565b6143db6020830186613dfc565b6143e86040830185613dfc565b6143f560608301846143ac565b95945050505050565b5f5f83601f84011261441357614412614237565b5b8235905067ffffffffffffffff8111156144305761442f61423b565b5b60208301915083600182028301111561444c5761444b61423f565b5b9250929050565b5f5f5f5f5f5f5f5f60e0898b03121561446f5761446e613cf4565b5b5f61447c8b828c01613d75565b985050602089013567ffffffffffffffff81111561449d5761449c613cf8565b5b6144a98b828c016143fe565b975097505060406144bc8b828c0161430b565b95505060606144cd8b828c01613d1b565b94505060806144de8b828c01613d1b565b93505060a06144ef8b828c01613d1b565b92505060c06145008b828c01613d1b565b9150509295985092959890939650565b61451981613d4e565b82525050565b5f82825260208201905092915050565b5f61453982613f3e565b614543818561451f565b9350614553818560208601613f58565b61455c81613f66565b840191505092915050565b61457081613fae565b82525050565b61457f81614019565b82525050565b5f61018083015f83015161459b5f860182614510565b5060208301516145ae6020860182614510565b50604083015184820360408601526145c6828261452f565b91505060608301516145db6060860182614116565b5060808301516145ee6080860182614116565b5060a083015161460160a0860182614116565b5060c083015161461460c0860182614116565b5060e083015161462760e0860182614567565b5061010083015161463c610100860182614576565b50610120830151614651610120860182614116565b50610140830151614666610140860182614116565b5061016083015161467b610160860182614116565b508091505092915050565b5f6020820190508181035f83015261469e8184614585565b905092915050565b5f81519050919050565b5f82825260208201905092915050565b5f819050602082019050919050565b5f6146da8383614116565b60208301905092915050565b5f602082019050919050565b5f6146fc826146a6565b61470681856146b0565b9350614711836146c0565b805f5b8381101561474157815161472888826146cf565b9750614733836146e6565b925050600181019050614714565b5085935050505092915050565b5f610100820190506147625f83018b613dfc565b61476f602083018a613dfc565b61477c6040830189613dfc565b6147896060830188613dfc565b6147966080830187613dfc565b81810360a08301526147a881866146f2565b905081810360c08301526147bc81856146f2565b90506147cb60e08301846143ac565b9998505050505050505050565b7f4e487b71000000000000000000000000000000000000000000000000000000005f52602260045260245ffd5b5f600282049050600182168061481c57607f821691505b60208210810361482f5761482e6147d8565b5b50919050565b7f7175657374696f6e206e6f7420657869737400000000000000000000000000005f82015250565b5f614869601283613f48565b915061487482614835565b602082019050919050565b5f6020820190508181035f8301526148968161485d565b9050919050565b7f6e6f7420696e206163746976652077696e646f770000000000000000000000005f82015250565b5f6148d1601483613f48565b91506148dc8261489d565b602082019050919050565b5f6020820190508181035f8301526148fe816148c5565b9050919050565b7f6e6f7420616374697665000000000000000000000000000000000000000000005f82015250565b5f614939600a83613f48565b915061494482614905565b602082019050919050565b5f6020820190508181035f8301526149668161492d565b9050919050565b7f616c7265616479207061727469636970617465640000000000000000000000005f82015250565b5f6149a1601483613f48565b91506149ac8261496d565b602082019050919050565b5f6020820190508181035f8301526149ce81614995565b9050919050565b7f696e76616c696420616e737765720000000000000000000000000000000000005f82015250565b5f614a09600e83613f48565b9150614a14826149d5565b602082019050919050565b5f6020820190508181035f830152614a36816149fd565b9050919050565b7f4e487b71000000000000000000000000000000000000000000000000000000005f52601160045260245ffd5b5f614a7482613cfc565b9150614a7f83613cfc565b9250828201905080821115614a9757614a96614a3d565b5b92915050565b5f606082019050614ab05f830186613dfc565b614abd6020830185613dfc565b614aca6040830184613dfc565b949350505050565b5f604082019050614ae55f830185613ded565b614af26020830184613dfc565b9392505050565b7f6e6f2062616c616e6365000000000000000000000000000000000000000000005f82015250565b5f614b2d600a83613f48565b9150614b3882614af9565b602082019050919050565b5f6020820190508181035f830152614b5a81614b21565b9050919050565b7f6e6f7420657869737400000000000000000000000000000000000000000000005f82015250565b5f614b95600983613f48565b9150614ba082614b61565b602082019050919050565b5f6020820190508181035f830152614bc281614b89565b9050919050565b7f6e6f7420696e20726566756e642070656e64696e6700000000000000000000005f82015250565b5f614bfd601583613f48565b9150614c0882614bc9565b602082019050919050565b5f6020820190508181035f830152614c2a81614bf1565b9050919050565b7f726566756e64206e6f7420617661696c61626c650000000000000000000000005f82015250565b5f614c65601483613f48565b9150614c7082614c31565b602082019050919050565b5f6020820190508181035f830152614c9281614c59565b9050919050565b7f4e487b71000000000000000000000000000000000000000000000000000000005f52603260045260245ffd5b7f6e6f742063726561746f720000000000000000000000000000000000000000005f82015250565b5f614cfa600b83613f48565b9150614d0582614cc6565b602082019050919050565b5f6020820190508181035f830152614d2781614cee565b9050919050565b7f77616974696e6720666f7220656e6400000000000000000000000000000000005f82015250565b5f614d62600f83613f48565b9150614d6d82614d2e565b602082019050919050565b5f6020820190508181035f830152614d8f81614d56565b9050919050565b7f696e76616c6964207374617465000000000000000000000000000000000000005f82015250565b5f614dca600d83613f48565b9150614dd582614d96565b602082019050919050565b5f6020820190508181035f830152614df781614dbe565b9050919050565b5f8160f81b9050919050565b5f614e1482614dfe565b9050919050565b614e2c614e2782613de1565b614e0a565b82525050565b5f819050919050565b614e4c614e4782613fae565b614e32565b82525050565b5f614e5d8285614e1b565b600182019150614e6d8284614e3b565b6020820191508190509392505050565b7f696e76616c69642072657665616c0000000000000000000000000000000000005f82015250565b5f614eb1600e83613f48565b9150614ebc82614e7d565b602082019050919050565b5f6020820190508181035f830152614ede81614ea5565b9050919050565b5f614eef82613cfc565b91507fffffffffffffffffffffffffffffffffffffffffffffffffffffffffffffffff8203614f2157614f20614a3d565b5b600182019050919050565b7f4e487b71000000000000000000000000000000000000000000000000000000005f52601260045260245ffd5b5f614f6382613cfc565b9150614f6e83613cfc565b925082614f7e57614f7d614f2c565b5b828204905092915050565b5f819050919050565b5f819050919050565b5f614fb5614fb0614fab84614f89565b614f92565b613cfc565b9050919050565b614fc581614f9b565b82525050565b5f604082019050614fde5f830185613ded565b614feb6020830184614fbc565b9392505050565b7f6e6f7420726566756e642070656e64696e6700000000000000000000000000005f82015250565b5f615026601283613f48565b915061503182614ff2565b602082019050919050565b5f6020820190508181035f8301526150538161501a565b9050919050565b7f726566756e64206e6f74207265616479000000000000000000000000000000005f82015250565b5f61508e601083613f48565b91506150998261505a565b602082019050919050565b5f6020820190508181035f8301526150bb81615082565b9050919050565b7f6f6e6c792063726561746f7200000000000000000000000000000000000000005f82015250565b5f6150f6600c83613f48565b9150615101826150c2565b602082019050919050565b5f6020820190508181035f830152615123816150ea565b9050919050565b7f6e6f7468696e67000000000000000000000000000000000000000000000000005f82015250565b5f61515e600783613f48565b91506151698261512a565b602082019050919050565b5f6020820190508181035f83015261518b81615152565b9050919050565b5f61519c826143a3565b91506151a7836143a3565b925082820390508181125f8412168282135f8512151617156151cc576151cb614a3d565b5b92915050565b7f656e64206d7573742062652061667465722073746172740000000000000000005f82015250565b5f615206601783613f48565b9150615211826151d2565b602082019050919050565b5f6020820190508181035f830152615233816151fa565b9050919050565b7f513e3000000000000000000000000000000000000000000000000000000000005f82015250565b5f61526e600383613f48565b91506152798261523a565b602082019050919050565b5f6020820190508181035f83015261529b81615262565b9050919050565b7f503e3000000000000000000000000000000000000000000000000000000000005f82015250565b5f6152d6600383613f48565b91506152e1826152a2565b602082019050919050565b5f6020820190508181035f830152615303816152ca565b9050919050565b7f746f6b656e2072657175697265640000000000000000000000000000000000005f82015250565b5f61533e600e83613f48565b91506153498261530a565b602082019050919050565b5f6020820190508181035f83015261536b81615332565b9050919050565b7f4e487b71000000000000000000000000000000000000000000000000000000005f52604160045260245ffd5b5f819050815f5260205f209050919050565b5f6020601f8301049050919050565b5f82821b905092915050565b5f600883026153fb7fffffffffffffffffffffffffffffffffffffffffffffffffffffffffffffffff826153c0565b61540586836153c0565b95508019841693508086168417925050509392505050565b5f61543761543261542d84613cfc565b614f92565b613cfc565b9050919050565b5f819050919050565b6154508361541d565b61546461545c8261543e565b8484546153cc565b825550505050565b5f5f905090565b61547b61546c565b615486818484615447565b505050565b5b818110156154a95761549e5f82615473565b60018101905061548c565b5050565b601f8211156154ee576154bf8161539f565b6154c8846153b1565b810160208510156154d7578190505b6154eb6154e3856153b1565b83018261548b565b50505b505050565b5f82821c905092915050565b5f61550e5f19846008026154f3565b1980831691505092915050565b5f61552683836154ff565b9150826002028217905092915050565b61553f82613f3e565b67ffffffffffffffff81111561555857615557615372565b5b6155628254614805565b61556d8282856154ad565b5f60209050601f83116001811461559e575f841561558c578287015190505b615596858261551b565b8655506155fd565b601f1984166155ac8661539f565b5f5b828110156155d3578489015182556001820191506020850194506020810190506155ae565b868310156155f057848901516155ec601f8916826154ff565b8355505b6001600288020188555050505b505050505050565b5f60a0820190506156185f830188613f2f565b6156256020830187613dfc565b6156326040830186613dfc565b61563f6060830185613dfc565b61564c6080830184613dfc565b9695505050505050565b5f6060820190506156695f830186613f2f565b6156766020830185613f2f565b6156836040830184613dfc565b949350505050565b5f60408201905061569e5f830185613f2f565b6156ab6020830184613dfc565b9392505050565b5f6020820190506156c55f830184613f2f565b9291505056fea26469706673582212201ef3e68afe6c811b19e7ae2173461c673fb3fc3cd7eddac38345711e64e6ea2a64736f6c634300081c0033",
  "linkReferences": {},
  "deployedLinkReferences": {},
  "immutableReferences": {},
  "inputSourceName": "project/contracts/Quiz.sol",
  "buildInfoId": "solc-0_8_28-e20aa21bb5d1fe328d22dd41d917beb87c72ef77"
}